:020000040800F2
:1000000000000820BD2A0008E50A0008E70A0008E9
:10001000E90A0008EB0A0008ED0A000800000000E9
:10002000000000000000000000000000EF0A0008CF
:10003000F10A000800000000F30A0008F50A0008B1
:100040000D2B00080D2B00080D2B00080D2B0008B0
:100050000D2B00080D2B00080D2B00080D2B0008A0
:100060000D2B00080D2B00080D2B00080D2B000890
:100070000D2B00080D2B00080D2B00080D2B000880
:100080000D2B00080D2B00080D2B00080D2B000870
:100090000D2B00080D2B00080D2B00080D2B000860
:1000A0000D2B00080D2B00080D2B00080D2B000850
:1000B0000D2B00080D2B00080D2B00080D2B000840
:1000C0000D2B00080D2B00080D2B00080D2B000830
:1000D0000D2B00080D2B00080D2B00080D2B000820
:1000E0000D2B00080D2B00080D2B00080D2B000810
:1000F0000D2B00080D2B00080D2B00080D2B000800
:100100000D2B00080D2B00080D2B00080D2B0008EF
:100110000D2B00080D2B00080D2B00080D2B0008DF
:100120000D2B00080D2B00080D2B00080D2B0008CF
:100130000D2B00080D2B00080D2B00080D2B0008BF
:100140000D2B00080D2B00080D2B00080D2B0008AF
:100150000D2B00080D2B00080D2B00080D2B00089F
:100160000D2B00080D2B00080D2B00080D2B00088F
:100170000D2B00080D2B00080D2B000800000000BF
:100180000D2B00080D2B00080D2B00080D2B00086F
:100190000D2B00080D2B00080D2B00080D2B00085F
:1001A0000D2B00080D2B00080D2B00080D2B00084F
:1001B0000D2B00080D2B00080D2B00080D2B00083F
:1001C0000D2B00080D2B0008000000000D2B00086F
:1001D0000D2B00080D2B00080D2B00080D2B00081F
:1001E0000D2B00080D2B00080D2B00080D2B00080F
:0801F0000D2B00080D2B000887
:1001F80010B5054C237833B9044B13B10448AFF359
:1002080000800123237010BD4C0100200000000075
:10021800102B000808B5034B1BB103490348AFF383
:10022800008008BD0000000050010020102B0008CD
:1002380053B94AB9002908BF00281CBF4FF0FF3145
:100248004FF0FF3000F074B9ADF1080C6DE904CE41
:1002580000F006F8DDF804E0DDE9022304B0704799
:100268002DE9F047089D04468E46002B4DD18A4261
:10027800944669D9B2FA82F252B101FA02F3C2F194
:10028800200120FA01F10CFA02FC41EA030E944025
:100298004FEA1C48210CBEFBF8F61FFA8CF708FB46
:1002A80016E341EA034306FB07F199420AD91CEB1E
:1002B800030306F1FF3080F01F81994240F21C8150
:1002C800023E63445B1AA4B2B3FBF8F008FB103398
:1002D80044EA034400FB07F7A7420AD91CEB0404CD
:1002E80000F1FF3380F00A81A74240F2078164449D
:1002F800023840EA0640E41B00261DB1D440002322
:10030800C5E900433146BDE8F0878B4209D9002D85
:1003180000F0EF800026C5E9000130463146BDE80F
:10032800F087B3FA83F6002E4AD18B4202D3824279
:1003380000F2F980841A61EB030301209E46002D28
:10034800E0D0C5E9004EDDE702B9FFDEB2FA82F27D
:10035800002A40F09280A1EB0C014FEA1C471FFADB
:100368008CFE0126200CB1FBF7F307FB131140EAC2
:1003780001410EFB03F0884208D91CEB010103F18F
:10038800FF3802D2884200F2CB804346091AA4B251
:10039800B1FBF7F007FB101144EA01440EFB00FE25
:1003A800A64508D91CEB040400F1FF3102D2A6458A
:1003B80000F2BB800846A4EB0E0440EA03409CE729
:1003C800C6F12007B34022FA07FC4CEA030C20FAD6
:1003D80007F401FA06F31C43F9404FEA1C4900FAF6
:1003E80006F3B1FBF9F8200C1FFA8CFE09FB181173
:1003F80040EA014108FB0EF0884202FA06F20BD9E6
:100408001CEB010108F1FF3A80F08880884240F235
:100418008580A8F102086144091AA4B2B1FBF9F079
:1004280009FB101144EA014100FB0EFE8E4508D974
:100438001CEB010100F1FF346CD28E456AD90238F9
:10044800614440EA0840A0FB0294A1EB0E01A142DE
:10045800C846A64656D353D05DB1B3EB080261EB4C
:100468000E0101FA07F722FA06F3F1401F43C5E926
:10047800007100263146BDE8F087C2F12003D8405C
:100488000CFA02FC21FA03F3914001434FEA1C479E
:100498001FFA8CFEB3FBF7F007FB10360B0C43EA90
:1004A800064300FB0EF69E4204FA02F408D91CEB40
:1004B800030300F1FF382FD29E422DD9023863443E
:1004C8009B1B89B2B3FBF7F607FB163341EA0341DE
:1004D80006FB0EF38B4208D91CEB010106F1FF382D
:1004E80016D28B4214D9023E6144C91A46EA004624
:1004F80038E72E46284605E70646E3E61846F8E6B6
:100508004B45A9D2B9EB020864EB0C0E0138A3E7FE
:100518004646EAE7204694E74046D1E7D0467BE7DF
:10052800023B614432E7304609E76444023842E757
:10053800704700BF70B50D4D0D4C641BA41000260C
:10054800A64209D10B4D0C4C02F0DEFA641BA41034
:100558000026A64205D170BD55F8043B98470136E0
:10056800EEE755F8043B98470136F2E7482B0008B8
:10057800482B0008482B00084C2B0008024403466F
:10058800934200D1704703F8011BF9E7F0B58DB02D
:1005980000240794089409940A940B94364B1A6B18
:1005A80042F004021A631A6B02F004020192019AE3
:1005B8001A6B42F080021A631A6B02F080020292F0
:1005C800029A1A6B42F001021A631A6B02F00102D6
:1005D8000392039A1A6B42F002021A631A6B02F032
:1005E80002020492049A1A6B42F008021A631A6B08
:1005F80002F008020592059A1A6B42F040021A634B
:100608001B6B03F040030693069B1C4F224644F2E3
:100618008101384600F04AFE194D224640212846FD
:1006280000F044FE4FF4005307934FF488130893E7
:10063800099407A9134800F03DFD44F2810307938C
:100648000126089609940A9407A9384600F032FD55
:1006580040230793089609940A9407A9284600F0AE
:1006680029FD802307930894099407A9284600F0D8
:1006780021FD0DB0F0BD00BF00380240000402406B
:10068800001802400008024072B6FEE710B5144890
:10069800144B0360144B00221A7080215970E12119
:1006A8009970DA701A715A7143604FF400038360CD
:1006B8000E4BC3600E4B036140F2F453436100F0EC
:1006C8009BFC58B90B4C382200212046FFF756FFF7
:1006D800212323604FF44003636110BDFFF7D4FF6B
:1006E800A80100200080024068010020AC00002022
:1006F8000C0000207001002008B50B480B4B03606C
:100708004FF4E133436000238360C36003610C222C
:1007180042618361C3610362436201F0D0FF00B9A3
:1007280008BDFFF7B1FF00BF600700200048004088
:1007380008B50B484FF0A04303600623436002222C
:10074800C2600023036182610122C26103624362C5
:10075800C262036300F0B0FD00B908BDFFF794FF63
:100768005802002000B595B03422002107A8FFF7F1
:1007780005FF00230293039304930593069300F067
:100788004DFE234B1A6C42F080521A641B6C03F026
:1007980080530093009B1F4A136823F4404343F49B
:1007A80080431360136803F440430193019B0123C2
:1007B80007934FF4A023089302230D934FF480026C
:1007C8000E9204220F9260211091119312921393AA
:1007D80007A800F069FEA0B900F028FE98B90F2319
:1007E800029302230393002304934FF4805205924B
:1007F8000693032102A801F0E3F830B915B05DF8BB
:1008080004FBFFF741FFFFF73FFFFFF73DFF00BF86
:10081800003802400070004010B500F09BF9FFF767
:10082800A1FFFFF7B3FEFFF731FFFFF765FFFFF703
:100838007FFF0A4C01221146204600F037FD4FF495
:10084800FA7000F0A5F900220121204600F02EFDE3
:100858004FF4FA7000F09CF9EBE700BF0004024087
:1008680082B00A4B1A6C42F080521A641A6C02F079
:1008780080520092009A5A6C42F480425A645B6C2F
:1008880003F480430193019B02B070470038024093
:10089800F0B58DB000230793089309930A930B933F
:1008A80002683A4B9A4201D00DB0F0BDA3F59043CF
:1008B8001A6B42F000721A631A6B02F0007200920F
:1008C800009A1A6B42F080621A631A6B02F0806217
:1008D8000192019A1A6B42F000621A631A6B02F0D5
:1008E80000620292029A1A6B42F004021A631A6BAF
:1008F80002F004020392039A1A6B42F001021A638F
:100908001A6B02F001020492049A1A6B42F0020276
:100918001A631A6B02F002020592059A1A6B42F0EA
:1009280040021A631B6B03F040030693069B3223B5
:1009380007930226089603250A950B240B9407A90A
:10094800134800F0B7FB86230793089600270997FA
:100958000A950B9407A90F4800F0ACFB4FF400531D
:100968000793089609970A950B9407A90A4800F077
:10097800A1FB4FF420530793089609970A950B9407
:1009880007A9064800F096FB8EE700BF00800240EA
:100998000008024000000240000402400018024023
:1009A80010B5ACB0044600212791289129912A91CD
:1009B8002B91902203A8FFF7E1FD2268184B9A4279
:1009C80001D02CB010BD4FF48073039303A801F03D
:1009D800D3F810BB134B1A6C42F480221A641A6CB9
:1009E80002F480220192019A1A6B42F008021A63FB
:1009F8001B6B03F008030293029B4FF44073279389
:100A0800022328930023299303232A9307232B9354
:100A180027A9054800F04EFBD3E7FFF735FED9E7D5
:100A28000048004000380240000C024070B5ACB0ED
:100A3800044600212791289129912A912B919022EF
:100A480003A8FFF79BFD2368B3F1A04F01D02CB09A
:100A580070BD4FF40013039303A801F08DF800282C
:100A680035D11C4C236B43F001032363236B03F044
:100A780001030093009B4FF4E85327930223289324
:100A88000025299503232A930A232B93124E27A97D
:100A9800304600F00FFB4FF40073279328952995F3
:100AA80027A9304600F006FB636B43F080036363BD
:100AB800636B03F080030193019B636C43F48043F1
:100AC8006364636C03F480430293029BBFE7FFF700
:100AD800DBFDC6E70038024000000240FEE7FEE703
:100AE800FEE7FEE7FEE770477047704708B500F07D
:100AF8003DF808BD034AD2F8883043F47003C2F8C1
:100B08008830704700ED00E010B504460E4B1878A9
:100B18004FF47A73B3FBF0F30C4A1068B0FBF3F0B0
:100B280000F094F868B90F2C01D901200AE00022DE
:100B380021464FF0FF3000F051F8054B1C600020B3
:100B480000E0012010BD00BF0400002000000020CC
:100B58000800002008B5032000F02EF80020FFF759
:100B6800D3FFFFF77DFE002008BD0000034A11688F
:100B7800034B1B780B441360704700BFE807002045
:100B880004000020014B1868704700BFE8070020E8
:100B980038B50446FFF7F6FF0546B4F1FF3F02D02B
:100BA800044B1B781C44FFF7EDFF401BA042FAD30F
:100BB80038BD00BF04000020074AD36823F4E0636F
:100BC8001B041B0C000200F4E060034343F0BF6306
:100BD80043F40033D360704700ED00E000B5194BD3
:100BE800DB68C3F30223C3F1070CBCF1040F28BF71
:100BF8004FF0040C03F1040EBEF1060F18D9033BA5
:100C08004FF0FF3E0EFA0CFC21EA0C0199400EFA57
:100C180003F322EA0303194300280BDB0901C9B2D5
:100C280000F1604000F5614080F800135DF804FBB6
:100C38000023E5E700F00F000901C9B2024B19547F
:100C4800F4E700BF00ED00E014ED00E00138B0F17A
:100C5800807F0BD24FF0E0235861054AF02182F8DB
:100C680023100020986107221A61704701207047FD
:100C780000ED00E05079137943EA002307480B5050
:100C8800D07893781B0443EA0063507843EA002342
:100C980012781343024A8B50704700BF40800240CD
:100CA8004480024030B4002208E0C468DC6051F897
:100CB8000C3043F4400341F80C300132032A1FD8AA
:100CC800C16802EB82034FEAC30C01EBC3030024A3
:100CD80041F80C405C609C60DC60941D40F8243056
:100CE80051F80C4044F4801441F80C40022ADCD836
:100CF800541C04EB8404C56805EBC404DC60D6E727
:100D080000238362C268036803F580531A6130BC0C
:100D1800704700B54FF0000E03E00269DA600EF18B
:100D2800010EBEF1030F29D801690EEB8E034FEABD
:100D3800C30C01EBC303002241F80C205A609A60EF
:100D4800DA601A625A624FF0004241F80C2044F20D
:100D5800F4525A605A6822F000425A600EF11202A8
:100D680040F82230BEF1020FD7D801690EF1010216
:100D780002EB820201EBC202DA60D0E70023C3650E
:100D880003668366C36683650269036803F5805357
:100D9800DA605DF804FB000070B505460C46026891
:100DA80013683B491940237C002B60D14FF40003A2
:100DB800607C00285DD14FF480000343A0680343A2
:100DC800E07F43EA004360690343A07F002852D1D3
:100DD8004FF400500343207F43EA0033A0690343E4
:100DE800207943EA802394F82000002845D14FF465
:100DF80000700343E07B43EAC013606A034394F83E
:100E0800280043EA00130B4313602B681E68012077
:100E1800FFF7BEFE2B681E6029688A6922F0BE02B1
:100E28001204120CA36C1B0494F84C0038BB8020ED
:100E38000343206D034394F85500012821D0002076
:100E4800034394F8560001281DD00020034394F86A
:100E58005400012819D00020034313438B612B68E9
:100E68009C690120FFF794FE2B689C6170BD0023EC
:100E78009EE70020A1E70020ACE70020B9E70020AA
:100E8800D6E70820DCE70420E0E70220E4E700BF1B
:100E98000F8120FF70B505460C46026802F58053A5
:100EA8009B692B491940237B002B4DD14FF0806360
:100EB800607B43EA4063607F002847D14FF480108D
:100EC8000343A07B43EA405360690343207F43EA1E
:100ED800C013A07F43EA8013206A034394F82400D8
:100EE80043EA80030B4302F5805293612B6803F5B4
:100EF80080539E690120FFF74BFE2B6803F5805352
:100F08009E612279A36843EA4263A2691343226976
:100F1800134394F8252043EAC213A26A43EA8203E2
:100F2800226813432A6843F4000302F580521360D1
:100F38002B6803F580531C680120FFF729FE2B68F6
:100F480003F580531C6070BD0023B1E70020B7E7AC
:100F5800233FDEF870B5A4B0064601258DF83C5055
:100F68008DF83D5000240D948DF84B408DF84A5073
:100F78008DF848408DF830508DF84C408DF83B4046
:100F880014948DF854401D948DF878401F948DF872
:100F980082408DF880404FF4804310934FF40063F3
:100FA80011938DF881400BA9FFF7F6FE8DF80C50D0
:100FB8008DF80D508DF81D508DF80E5005948DF854
:100FC8001C408DF81E4008948DF824508DF804506C
:100FD8004FF4803302934FF4800306934FF4005389
:100FE80004938DF825500A94009469463046FFF71B
:100FF80051FF24B070BD0000002855D030B583B033
:101008000446D0F88430002B32D0284B5A6C42F476
:1010180080425A645B6C03F480430193019B244B28
:101028005A6822F400025A605A68A1680A435A6052
:101038005B68236803F580531A6842F001021A605E
:10104800FFF7A0FD0546236803F580531B6813F0DE
:10105800010F13D0FFF796FD401BB0F5FA7FF2D9C8
:101068000423C4F88830E023C4F88430012019E050
:101078002323C0F88430FFF70BFCC6E72046FFF7B0
:1010880069FF2046FFF70EFE2046FFF742FE626822
:1010980000212046FFF7EEFD0020C4F88800102349
:1010A800C4F8843003B030BD0120704700380240D6
:1010B8000038014000230F2B00F2EF8070B582B09A
:1010C80061E085685E000324B44025EA0405CC6825
:1010D800B4402C438460456825EA02054C68C4F393
:1010E80000129A402A4342605BE0DC08083450F85A
:1010F800246003F0070295000F22AA4026EA020E98
:101108000A69AA4042EA0E0240F824205DE009225A
:1011180000E0002202FA0EF22A4302345F4D45F83D
:1011280024205F4A94686FEA0C0224EA0C054E6892
:1011380016F4801F01D04CEA0405594CA560E468F8
:1011480002EA04054E6816F4001F01D04CEA0405B3
:10115800534CE560646802EA04054E6816F4003FE3
:1011680001D04CEA04054E4C6560246822404D6865
:1011780015F4803F01D04CEA0402494C2260013347
:101188000F2B00F2888001229A400C6804EA020CB6
:1011980032EA0404F3D14C6804F00304013C012C46
:1011A8008FD94A6802F00302032A09D0C4685D0097
:1011B8000322AA4024EA02048A68AA402243C260A1
:1011C8004A6802F00302022A8FD004684FEA430EED
:1011D800032202FA0EF224EA02044A6802F0030229
:1011E80002FA0EF2224302604A6812F4403FC6D067
:1011F8002C4A546C44F480445464526C02F4804287
:101208000192019A9C08A51C244A52F8255003F023
:1012180003024FEA820E0F2202FA0EF225EA0205B5
:10122800214A90423FF475AF02F58062904222D085
:1012380002F58062904220D002F5806290421ED072
:1012480002F5806290421CD002F5806290421AD06A
:1012580002F58062904218D002F58062904216D062
:1012680002F58062904214D002F5806290423FF409
:101278004EAF0A224EE701224CE702224AE7032238
:1012880048E7042246E7052244E7062242E7072208
:1012980040E708223EE702B070BD704700380140C1
:1012A800003C014000380240000002400AB1816160
:1012B800704709048161704770B58AB0002800F052
:1012C80097800546046890F8BD343BB3032385F83E
:1012D800BD34E36B13F4807F01D100232B612868B0
:1012E80001F084FA2C4654F8106BEC460FCCACE8AD
:1012F8000F000FCCACE80F0094E803008CE8030063
:101308002B1D0ECB304601F033FA044658B10223A8
:1013180085F8BD34012420460AB070BD80F8BC347D
:10132800FFF784FBD2E70021286801F091FB2346F0
:1013380016E003EBC30205EB8202012182F83D109F
:1013480082F83C30A2F84430002182F840109164C1
:10135800D16403EBC30205EB820251650133DBB2B2
:1013680069688B42E5D316E004EBC40305EB8303FD
:10137800002283F87D2283F87C4283F88022C3F818
:101388008822C3F88C2204EBC40305EB8303C3F85B
:1013980094220134E4B2A142E6D82C4654F8106BEA
:1013A800EC460FCCACE80F000FCCACE80F0094E88B
:1013B80003008CE803002B1D0ECB304601F072FAB7
:1013C800044660B9002385F83830012385F8BD3418
:1013D8006B6A012B08D0286801F028FB9BE70223E1
:1013E80085F8BD34012496E7284600F003F8F2E7B3
:1013F800012490E7034602680121C0F80015002087
:1014080083F8F404936943F000639361536D43F0E8
:10141800805343F00303536570470000024A136882
:1014280043F48073136070470070004010B582B0B9
:101438001B4B1A6C42F080521A641B6C03F08053E9
:101448000193019B174A136843F480331360FFF735
:1014580099FB0446134B5B6813F4803F08D1FFF7F0
:1014680091FB001BB0F57A7FF4D9032002B010BDC0
:101478000C4A136843F400331360FFF783FB0446F8
:10148800084B5B6813F4003F07D1FFF77BFB001B99
:10149800B0F57A7FF4D90320E8E70020E6E700BF3B
:1014A8000038024000700040002800F0068270B545
:1014B80082B00446036813F0010F29D0954B9B684E
:1014C80003F00C03042B1AD0924B9B6803F00C0317
:1014D800082B0FD06368B3F5803F40D0002B54D160
:1014E8008C4B1A6822F480321A601A6822F480221F
:1014F8001A6039E0874B5B6813F4800FEAD0854B9C
:101508001B6813F4003F03D06368002B00F0D781F9
:10151800236813F0020F74D07E4B9B6813F00C0FF6
:101528005ED07C4B9B6803F00C03082B53D0E36818
:10153800002B00F08980774A136843F00103136099
:10154800FFF720FB0546734B1B6813F0020F72D19F
:10155800FFF718FB401B0228F5D90320B4E16D4AB8
:10156800136843F48033136063682BB3FFF70AFBF7
:101578000546684B1B6813F4003FC9D1FFF702FB0F
:10158800401B6428F5D903209EE1B3F5A02F09D0AC
:10159800604B1A6822F480321A601A6822F480229A
:1015A8001A60E1E75B4B1A6842F480221A601A68F5
:1015B80042F480321A60D7E7FFF7E4FA0546554B44
:1015C8001B6813F4003FA3D0FFF7DCFA401B642824
:1015D800F5D9032078E14F4B5B6813F4800FA6D14F
:1015E8004C4B1B6813F0020F03D0E368012B40F04B
:1015F8006881484A136823F0F803216943EAC10364
:101608001360236813F0080F46D0636983B3414A17
:10161800536F43F001035367FFF7B4FA05463D4B98
:101628005B6F13F0020F37D1FFF7ACFA401B0228AB
:10163800F5D9032048E1374A136823F0F8032169F4
:1016480043EAC1031360DCE7324A136823F001035D
:101658001360FFF797FA05462E4B1B6813F0020F2D
:10166800CFD0FFF78FFA401B0228F5D903202BE1D2
:10167800284A536F23F001035367FFF783FA05469F
:10168800244B5B6F13F0020F06D0FFF77BFA401B69
:101698000228F5D9032017E1236813F0040F7DD041
:1016A8001C4B1B6C13F0805F1ED11A4B1A6C42F056
:1016B80080521A641B6C03F080530193019B01252F
:1016C800154B1B6813F4807F10D0A368012B25D01D
:1016D800002B3BD10F4B1A6F22F001021A671A6FC9
:1016E80022F004021A671EE00025E9E70A4A136897
:1016F80043F480731360FFF745FA0646064B1B68F0
:1017080013F4807FE1D1FFF73DFA801B6428F5D9F7
:101718000320D9E00038024000700040724A136F7D
:1017280043F001031367A36833B3FFF72BFA0646A8
:101738006D4B1B6F13F0020F2FD1FFF723FA801B9D
:1017480041F288339842F3D90320BDE0052B09D034
:10175800654B1A6F22F001021A671A6F22F0040211
:101768001A67E0E7604B1A6F42F004021A671A6FB3
:1017780042F001021A67D6E7FFF704FA06465A4B09
:101788001B6F13F0020F08D0FFF7FCF9801B41F222
:1017980088339842F3D9032096E0FDB9A369002B5A
:1017A80000F09180504A926802F00C02082A59D041
:1017B800022B19D04C4A136823F080731360FFF78B
:1017C800E1F90446484B1B6813F0007F48D0FFF747
:1017D800D9F9001B0228F5D9032075E0424A136C99
:1017E80023F080531364D9E73F4A136823F08073CA
:1017F8001360FFF7C7F905463B4B1B6813F0007FE2
:1018080006D0FFF7BFF9401B0228F5D903205BE09B
:10181800E369226A1343626A43EA8213A26A52089E
:10182800013A43EA0243E26A43EA0263226B43EA6B
:1018380002732D4A5360136843F080731360FFF7F7
:10184800A1F90446284B1B6813F0007F06D1FFF767
:1018580099F9001B0228F5D9032035E0002033E070
:10186800002031E0204A5268012B2FD002F4800377
:10187800E1698B422CD102F03F03216A8B4229D1C6
:10188800616A47F6C0731340B3EB811F24D102F499
:101898004031A36A5B08013BB1EB034F1ED102F054
:1018A8007063E16AB3EB016F1AD102F0E042236B77
:1018B800B2EB037F16D1002006E00120704701201B
:1018C80002E0012000E0002002B070BD0120FBE72B
:1018D8000120F9E70120F7E70120F5E70120F3E708
:1018E8000120F1E70120EFE70038024008B5314B4D
:1018F8009B6803F00C03042B57D0082B57D12D4BB2
:101908005A6802F03F025B6813F4800F2AD0294B13
:101918005968C1F3881C4FEA4C11B1EB0C006EEB0F
:101928000E0E4FEA8E1343EA90638101091A63EBA6
:101938000E03DB0043EA5173C90011EB0C0C43F1B1
:101948000003590200234FEA4C2041EADC51FEF71C
:101958006FFC184B5B68C3F3014301335B00B0FBBA
:10196800F3F025E0134B5968C1F3881C4FEA4C117A
:10197800B1EB0C006EEB0E0E4FEA8E1343EA906348
:101988008101091A63EB0E03DB0043EA5173C900B6
:1019980011EB0C0C43F10003990200234FEA8C2051
:1019A80041EA9C51FEF744FCD3E7034800E00348B2
:1019B80008BD00BF0038024000127A000024F4007D
:1019C800002800F0A08070B50D460446524B1B68F5
:1019D80003F00F038B420BD24F4A136823F00F0317
:1019E8000B431360136803F00F038B4240F08D80A4
:1019F800236813F0020F17D013F0040F04D0474ADE
:101A0800936843F4E0539360236813F0080F04D0FD
:101A1800424A936843F460439360404A936823F0D2
:101A2800F003A1680B439360236813F0010F31D0D2
:101A38006368012B20D0022B25D0384A126812F097
:101A4800020F64D035498A6822F0030213438B6081
:101A5800FFF798F80646314B9B6803F00C03626861
:101A6800B3EB820F16D0FFF78DF8801B41F2883355
:101A78009842F0D9032045E0284A126812F4003F42
:101A8800E0D101203EE0254A126812F0007FD9D14A
:101A9800012037E0204B1B6803F00F03AB420AD943
:101AA8001D4A136823F00F032B431360136803F0D8
:101AB8000F03AB422DD1236813F0040F06D0174A49
:101AC800936823F4E053E1680B439360236813F0B1
:101AD800080F07D0114A936823F46043216943EA49
:101AE800C1039360FFF702FF0C4B9B68C3F303131A
:101AF8000B4AD35CD8400B4B18600B4B1868FFF7A8
:101B080003F8002070BD012070470120FAE701208A
:101B1800F8E70120F6E700BF003C02400038024029
:101B2800282B00080000002008000020014B18683E
:101B3800704700BF0000002008B5FFF7F7FF044B0F
:101B48009B68C3F38223034AD35CD84008BD00BF17
:101B580000380240382B000808B5FFF7E7FF044BB0
:101B68009B68C3F34233034AD35CD84008BD00BF27
:101B780000380240382B0008F0B583B004460668E8
:101B880016F001060DD0B54B9A6822F400029A604F
:101B98009A68416B0A439A60436B002B00F0678197
:101BA8000026256815F4002511D0AC4AD2F88C30EF
:101BB80023F44013E16B0B43C2F88C30E36BB3F5AD
:101BC800801F00F05681002B00F055810025236806
:101BD80013F4801F0FD0A14AD2F88C3023F44003AD
:101BE800216C0B43C2F88C30236CB3F5800F00F0E6
:101BF800448103B90125236813F0807F00D00126B2
:101C080013F0200F40F03B81236813F0100F0CD025
:101C1800924BD3F88C2022F08072C3F88C20D3F832
:101C28008C20A16B0A43C3F88C20236813F4804FDF
:101C380008D08A4AD2F8903023F44033616E0B43BF
:101C4800C2F89030236813F4004F08D0834AD2F8C2
:101C5800903023F44023A16E0B43C2F890302368E0
:101C680013F4803F08D07D4AD2F8903023F4401313
:101C7800E16E0B43C2F89030236813F4003F08D09C
:101C8800764AD2F8903023F44003216F0B43C2F810
:101C98009030236813F0400F08D0704AD2F8903083
:101CA80023F00303616C0B43C2F89030236813F0F0
:101CB800800F08D0694AD2F8903023F00C03A16C49
:101CC8000B43C2F89030236813F4807F08D0634A2E
:101CD800D2F8903023F03003E16C0B43C2F8903017
:101CE800236813F4007F08D05C4AD2F8903023F0C0
:101CF800C003216D0B43C2F89030236813F4806F42
:101D080008D0564AD2F8903023F44073616D0B43E3
:101D1800C2F89030236813F4006F08D04F4AD2F805
:101D2800903023F44063A16D0B43C2F890302368D0
:101D380013F4805F08D0494AD2F8903023F4405316
:101D4800E16D0B43C2F89030236813F4005F08D0AC
:101D5800424AD2F8903023F44043216E0B43C2F834
:101D68009030236813F4800F08D03C4AD2F89030A2
:101D780023F08063A16F0B43C2F89030236813F4FB
:101D8800001F0DD0354AD2F8903023F00063E16F80
:101D98000B43C2F89030E36FB3F1006F00F0D780C7
:101DA800236813F0080F00D0012513F4802F08D002
:101DB8002A4AD2F8903023F04073616F0B43C2F87F
:101DC8009030236813F4000F09D0244AD2F89030D9
:101DD80023F08053D4F880100B43C2F89030236866
:101DE80013F0806F09D01D4AD2F8903023F00053C9
:101DF800D4F884100B43C2F89030236813F0006FB6
:101E080009D0164AD2F88C3023F00073D4F8881021
:101E18000B43C2F88C30236813F0805F09D00F4A57
:101E2800D2F88C3023F08063D4F88C100B43C2F8BE
:101E38008C3026B9236813F0007F00F00881074A28
:101E4800136823F080631360FEF79CFE0646034B7D
:101E58001B6813F0006F7CD002E000BF003802401E
:101E6800FEF790FE801B6428F1D90320F2E00126DA
:101E780097E60126A7E60125A9E60126B9E6804BE3
:101E88001A6C42F080521A641B6C03F08053019361
:101E9800019B7C4A136843F480731360FEF772FE5B
:101EA8000746784B1B6813F4807F06D1FEF76AFE5D
:101EB800C01B6428F5D90320CCE0714B1B6F13F4C9
:101EC800407315D0226B02F440729A4210D06C4BCA
:101ED8001A6F22F44072196F41F480311967196F33
:101EE80021F4803119671A671B6F13F0010F12D1A3
:101EF800236B03F44072B2F5407F1DD0604A9368AB
:101F080023F4F81393605E490B6F226BC2F30B0244
:101F180013430B6778E6FEF735FE0746584B1B6FF1
:101F280013F0020FE4D1FEF72DFEC01B41F28833F7
:101F38009842F3D903208DE051498A6822F4F812B7
:101F480023F0704323F4407313438B60DBE70125D0
:101F580026E7236813F0010F13D0636B8BB9484A47
:101F6800D2F88430D2F88410606803F4403343EA2E
:101F7800801301F070610B43A16843EA0173C2F852
:101F88008430236813F4002F03D0E26BB2F5801F6E
:101F980006D013F4801F1ED0236CB3F5800F1AD11E
:101FA800374AD2F88430D2F88410606803F440339A
:101FB80043EA8013E06843EA006301F0E0410B4321
:101FC800C2F88430D2F88C3023F01F03616A0139DB
:101FD8000B43C2F88C30236813F0807F11D0284A55
:101FE800D2F88400D2F88410666823691B0443EA97
:101FF800861300F07060034301F0E0410B43C2F820
:102008008430236813F0007F0DD0626823691B04B5
:1020180043EA8213E26843EA0263A26843EA02736E
:10202800174AC2F88430164A136843F08063136075
:10203800FEF7A8FD0646124B1B6813F0006F06D189
:10204800FEF7A0FD801B6428F5D9032002E0012DCE
:1020580002D0002003B0F0BD094A136823F0805372
:102068001360FEF78FFD0546054B1B6813F0005FF4
:102078000AD0FEF787FD401B6428F5D90320E9E75D
:102088000038024000700040236813F4002F01D08C
:10209800E26B22B113F4801F1DD0236CDBB9354AE3
:1020A800D2F88830D2F88810606903F4403343EAE4
:1020B8008013A06943EA006301F0E0410B43C2F8D2
:1020C8008830D2F88C3023F4F853A16A013943EAF6
:1020D8000123C2F88C30236813F4001F03D0E36F88
:1020E800B3F1006F31D0236813F0080F19D0214ADB
:1020F800D2F88810D2F88830606903F4403343EA94
:10210800801301F070610B43E16943EA0173C2F87F
:102118008830D2F88C3023F44033E16A0B43C2F89C
:102128008C30144A136843F080531360FEF72AFD7D
:102138000446104B1B6813F0005F19D1FEF722FD0F
:10214800001B6428F5D9032084E70A4AD2F88800DE
:10215800D2F888106569236A1B0443EA851300F0E6
:102168007060034301F0E0410B43C2F88830BAE7DE
:1021780000206FE70038024010B504468368026902
:10218800134342691343C269134301680868934AB9
:10219800024013430B602268536823F44053E168FC
:1021A8000B435360A269236A1A4321688B6823F49E
:1021B800306313438B602368894A934219D0894A54
:1021C800934229D0884A93423ED0884A934262D0AB
:1021D800874A934271D0874A934200F08380864AA7
:1021E800934200F09480854A934200F0A580102322
:1021F8003AE0834BD3F8903003F00303032B09D85C
:10220800DFE803F00204AE0601232DE004232BE0EF
:10221800082329E0102327E0794BD3F8903003F006
:102228000C030C2B0ED8DFE803F0070D0D0D090D7C
:102238000D0D9D0D0D0D0B00002315E0042313E07B
:10224800082311E010230FE06D4BD3F8903003F012
:102258003003202B00F0888019D8002B00F08680EE
:10226800102B40F085800423E069B0F5004F00F0A2
:10227800AB80082B00F20C81DFE813F0E800FB00CC
:10228800E6000A01FE000A010A010A010101302BD9
:1022980070D10823E8E75A4BD3F8903003F0C00315
:1022A800802B69D005D8002B68D0402B68D1042337
:1022B800DAE7C02B66D10823D6E7514BD3F8903024
:1022C80003F44073B3F5007F5ED006D8002B5DD0D1
:1022D800B3F5807F5CD10423C6E7B3F5407F59D1BD
:1022E8000823C1E7464BD3F8903003F44063B3F5B5
:1022F800006F51D006D8002B50D0B3F5806F4FD166
:102308000423B1E7B3F5406F4CD10823ACE73C4B4D
:10231800D3F8903003F44053B3F5005F44D006D8A7
:10232800002B43D0B3F5805F42D104239CE7B3F57B
:10233800405F3FD1082397E7314BD3F8903003F43F
:102348004043B3F5004F37D005D8BBB3B3F5804F42
:1023580036D1042388E7B3F5404F33D1082383E708
:10236800022381E702237FE702237DE700237BE73F
:10237800102379E7102377E7022375E7002373E733
:10238800102371E710236FE702236DE700236BE743
:10239800102369E7102367E7022365E7012363E752
:1023A800102361E710235FE702235DE700235BE763
:1023B800102359E7102357E7022355E7002353E773
:1023C800102351E710234FE7082B5BD8DFE803F011
:1023D8001A343A5A375A5A5A1E0000BFF369FFEFA7
:1023E800001001400044004000480040004C0040FC
:1023F800005000400014014000780040007C00407C
:1024080000380240FFF798FB00283DD06268530867
:1024180003EB4000B0FBF2F0A0F110024FF6EF73AF
:102428009A4233D883B223F00F03C0F34200184313
:102438002368D860002030E0FFF78EFBE4E7FFF761
:1024480055FAE1E71748E1E7164802E0FFF774FBA1
:1024580000B3636800EB5300B0FBF3F0A0F1100287
:102468004FF6EF739A4217D8236880B2D8600020DD
:1024780013E0FFF771FBEBE7FFF738FAE8E74FF4F3
:102488000040E6E7012008E0002006E0012004E023
:10249800012002E0002000E001200023A366E3669B
:1024A80010BD00BF0024F400436A13F0010F06D0EA
:1024B8000268536823F40033816A0B435360436A0C
:1024C80013F0020F06D00268536823F48033C16A00
:1024D8000B435360436A13F0040F06D00268536835
:1024E80023F48023016B0B435360436A13F0080FF6
:1024F80006D00268536823F40043416B0B435360D2
:10250800436A13F0100F06D00268936823F48053CF
:10251800816B0B439360436A13F0200F06D0026867
:10252800936823F40053C16B0B439360436A13F021
:10253800400F0AD00268536823F48013016C0B43E0
:102548005360036CB3F5801F0BD0436A13F0800F00
:1025580006D00268536823F40023816C0B43536050
:1025680070470268536823F4C003416C0B435360FF
:10257800EBE72DE9F84305460F4616469946DDF880
:1025880020802C68E46937EA04030CBF4FF0010C83
:102598004FF0000CB44555D1B8F1FF3FF1D0FEF72C
:1025A800F1FAA0EB090040452ED8B8F1000F2BD066
:1025B8002B681A6812F0040FE3D0DA6912F4006F7E
:1025C800DFD04FF400621A622A6852E8003F23F411
:1025D800D07342E800310029F6D12A6802F10803D5
:1025E80053E8003F23F00103083242E80031002994
:1025F800F3D12023EB67C5F88030C5F88430002379
:1026080085F8783003201EE02A6852E8003F23F45A
:10261800D07342E800310029F6D12A6802F1080394
:1026280053E8003F23F00103083242E80031002953
:10263800F3D12023EB67C5F88030002385F8783084
:10264800032000E00020BDE8F88330B583B00446DD
:102658000023C0F88430FEF795FA05462268126810
:1026680012F0080F0FD123681B6813F0040F18D15C
:102678002023E367C4F8803000202066606684F871
:10268800780003B030BD6FF07E430093034600220C
:102698004FF400112046FFF76CFF0028E3D0032019
:1026A800EFE76FF07E4300932B4600224FF4800142
:1026B8002046FFF75EFF0028DAD00320E1E768B381
:1026C80010B50446C36F03B32423E3672268136875
:1026D80023F0010313602046FFF74EFD012813D0B5
:1026E800636ABBB92268536823F490435360226835
:1026F800936823F02A0393602268136843F0010368
:1027080013602046FFF7A1FF10BD80F87830FEF770
:1027180047F9D9E72046FFF7C7FEE3E701207047EE
:1027280082B000230193019B01330193019A0F4B5F
:102738009A4215D80369002BF5DA0023019303693F
:1027480043F001030361019B01330193019A074B95
:102758009A4208D8036913F0010FF4D1002000E071
:10276800032002B070470320FBE700BF400D0300C1
:1027780084B010B5044603A880E80E00089B012B1E
:102788001FD1A36B23F48033A363E36823F484038A
:1027980023F04003E360E36823F44013E3600F9BF6
:1027A800012B09D02046FFF7BBFF069B012B14D055
:1027B800BDE8104004B07047E36843F48013E36059
:1027C800F0E7E36843F04003E3602046FFF7A8FF23
:1027D800A36B43F48033A363E7E7A36843F00603DE
:1027E800A360A36843F02003A360E1E7836823F0B4
:1027F800010383600020704782B000230193019B8E
:1028080001330193019A0F4B9A4215D80369002BA3
:10281800F5DA00230193890141F020010161019B50
:1028280001330193019A074B9A4208D8036913F0C0
:10283800200FF4D1002000E0032002B070470320ED
:10284800FBE700BF400D030082B000230193019B0A
:1028580001330193019A0E4B9A4213D80369002B56
:10286800F5DA0023019310230361019B01330193DF
:10287800019A074B9A4208D8036913F0100FF4D154
:10288800002000E0032002B070470320FBE700BFF0
:10289800400D0300D0F800381943C0F80018002094
:1028A8007047000084B02DE9F041044607A880E88D
:1028B8000E00002306E003F1400204EB820200212F
:1028C800516001330E2BF6D9119F27BBD4F8043879
:1028D80043F00203C4F80438A36B23F40013A36382
:1028E800236843F040032360236843F08003236098
:1028F8000023C4F8003E04F50065D4F80038C4F895
:1029080000380C9B012B10D1099B4BB900212046A4
:10291800FFF7C0FF0DE0A36B43F40013A363E7E7E1
:1029280001212046FFF7B6FF03E003212046FFF709
:10293800B1FF10212046FFF75FFF804608B14FF036
:1029480001082046FFF780FF08B14FF00108002377
:102958002B616B61EB610AE0C3B94FF00060C2F80C
:10296800000900220A614FF67F328A600133079915
:10297800994210D904EB431202F51061D2F800090C
:102988000028E9DB0020C2F80009EAE74FF0904090
:10299800C2F80009E5E700230AE0C3B14FF0904C04
:1029A800C2F800CB002202614FF67F328260013309
:1029B800994211D904EB431202F53060D2F8006B4A
:1029C800002EEADB4FF0000CC2F800CBEAE74FF02C
:1029D800006CC2F800CBE5E72B6923F480732B6108
:1029E8000023A3616FF0804363610A9B1BB9A3694D
:1029F80043F01003A361A2690B4B1343A3610D9B22
:102A08001BB1A36943F00803A361012F04D040461A
:102A1800BDE8F04104B07047A36943F0804343F038
:102A28000403A361F3E700BF00383C80D0F8003E00
:102A380023F00303C0F8003ED0F8043843F0020343
:102A4800C0F8043800207047406900F00100704762
:102A580038B50546C36823F0C043C360012913D0C5
:102A680019BBC36843F08043C36000240120FEF70C
:102A78008FF801342846FFF7E7FF08B1312CF5D964
:102A8800322C14D0002038BDC36843F00053C36013
:102A980000240120FEF77CF801342846FFF7D4FF14
:102AA8000128EDD0312CF4D9EAE70120EBE7012029
:102AB800E9E70000DFF834D00D480E490E4A00233C
:102AC80002E0D458C4500433C4188C42F9D30B4ADA
:102AD8000B4C002301E013600432A242FBD3FEF743
:102AE80009F8FDF727FDFDF797FE7047000008205D
:102AF800000000200C000020502B00084C01002092
:102B0800EC070020FEE70000F8B500BFF8BC08BCE1
:102B18009E467047F8B500BFF8BC08BC9E46704793
:102B28000000000000000000010203040607080975
:082B380000000000010203048B
:082B400028D7FF7F010000000F
:042B48001D02000862
:042B4C00F901000883
:0C2B50000024F400010000001000000050
:102B5C000000000000000000000000000000000069
:102B6C000000000000000000000000000000000059
:102B7C000000000000000000000000000000000049
:102B8C000000000000000000000000000000000039
:102B9C000000000000000000000000000000000029
:102BAC000000000000000000000000000000000019
:102BBC000000000000000000000000000000000009
:102BCC0000000000000000000000000000000000F9
:102BDC0000000000000000000000000000000000E9
:102BEC0000000000000000000000000000000000D9
:102BFC0000000000000000000000000000000000C9
:102C0C0000000000000000000000000000000000B8
:102C1C0000000000000000000000000000000000A8
:102C2C000000000000000000000000000000000098
:102C3C000000000000000000000000000000000088
:102C4C000000000000000000000000000000000078
:102C5C000000000000000000000000000000000068
:102C6C000000000000000000000000000000000058
:102C7C000000000000000000000000000000000048
:102C8C000000000000000000000000000000000038
:0400000508002ABD08
:00000001FF
